{"abi":[{"type":"constructor","inputs":[{"name":"_name","type":"string","internalType":"string"},{"name":"_symbol","type":"string","internalType":"string"}],"stateMutability":"nonpayable"},{"type":"function","name":"approve","inputs":[{"name":"to","type":"address","internalType":"address"},{"name":"tokenId","type":"uint256","internalType":"uint256"}],"outputs":[],"stateMutability":"nonpayable"},{"type":"function","name":"balanceOf","inputs":[{"name":"owner","type":"address","internalType":"address"}],"outputs":[{"name":"","type":"uint256","internalType":"uint256"}],"stateMutability":"view"},{"type":"function","name":"createNFT","inputs":[{"name":"tokenURI","type":"string","internalType":"string"}],"outputs":[],"stateMutability":"nonpayable"},{"type":"function","name":"getApproved","inputs":[{"name":"tokenId","type":"uint256","internalType":"uint256"}],"outputs":[{"name":"","type":"address","internalType":"address"}],"stateMutability":"view"},{"type":"function","name":"getNFTForTokenId","inputs":[{"name":"tokenId","type":"uint256","internalType":"uint256"}],"outputs":[{"name":"","type":"tuple","internalType":"struct NFTCollection.MintedNFT","components":[{"name":"tokenId","type":"uint256","internalType":"uint256"},{"name":"owner","type":"address","internalType":"address"}]}],"stateMutability":"view"},{"type":"function","name":"getNFTsInCollection","inputs":[],"outputs":[{"name":"","type":"tuple[]","internalType":"struct NFTCollection.MintedNFTWithURI[]","components":[{"name":"tokenId","type":"uint256","internalType":"uint256"},{"name":"owner","type":"address","internalType":"address"},{"name":"uri","type":"string","internalType":"string"}]}],"stateMutability":"view"},{"type":"function","name":"isApprovedForAll","inputs":[{"name":"owner","type":"address","internalType":"address"},{"name":"operator","type":"address","internalType":"address"}],"outputs":[{"name":"","type":"bool","internalType":"bool"}],"stateMutability":"view"},{"type":"function","name":"name","inputs":[],"outputs":[{"name":"","type":"string","internalType":"string"}],"stateMutability":"view"},{"type":"function","name":"ownerOf","inputs":[{"name":"tokenId","type":"uint256","internalType":"uint256"}],"outputs":[{"name":"","type":"address","internalType":"address"}],"stateMutability":"view"},{"type":"function","name":"safeTransferFrom","inputs":[{"name":"from","type":"address","internalType":"address"},{"name":"to","type":"address","internalType":"address"},{"name":"tokenId","type":"uint256","internalType":"uint256"}],"outputs":[],"stateMutability":"nonpayable"},{"type":"function","name":"safeTransferFrom","inputs":[{"name":"from","type":"address","internalType":"address"},{"name":"to","type":"address","internalType":"address"},{"name":"tokenId","type":"uint256","internalType":"uint256"},{"name":"data","type":"bytes","internalType":"bytes"}],"outputs":[],"stateMutability":"nonpayable"},{"type":"function","name":"setApprovalForAll","inputs":[{"name":"operator","type":"address","internalType":"address"},{"name":"approved","type":"bool","internalType":"bool"}],"outputs":[],"stateMutability":"nonpayable"},{"type":"function","name":"supportsInterface","inputs":[{"name":"interfaceId","type":"bytes4","internalType":"bytes4"}],"outputs":[{"name":"","type":"bool","internalType":"bool"}],"stateMutability":"view"},{"type":"function","name":"symbol","inputs":[],"outputs":[{"name":"","type":"string","internalType":"string"}],"stateMutability":"view"},{"type":"function","name":"tokenURI","inputs":[{"name":"tokenId","type":"uint256","internalType":"uint256"}],"outputs":[{"name":"","type":"string","internalType":"string"}],"stateMutability":"view"},{"type":"function","name":"transferFrom","inputs":[{"name":"from","type":"address","internalType":"address"},{"name":"to","type":"address","internalType":"address"},{"name":"tokenId","type":"uint256","internalType":"uint256"}],"outputs":[],"stateMutability":"nonpayable"},{"type":"event","name":"Approval","inputs":[{"name":"owner","type":"address","indexed":true,"internalType":"address"},{"name":"approved","type":"address","indexed":true,"internalType":"address"},{"name":"tokenId","type":"uint256","indexed":true,"internalType":"uint256"}],"anonymous":false},{"type":"event","name":"ApprovalForAll","inputs":[{"name":"owner","type":"address","indexed":true,"internalType":"address"},{"name":"operator","type":"address","indexed":true,"internalType":"address"},{"name":"approved","type":"bool","indexed":false,"internalType":"bool"}],"anonymous":false},{"type":"event","name":"BatchMetadataUpdate","inputs":[{"name":"_fromTokenId","type":"uint256","indexed":false,"internalType":"uint256"},{"name":"_toTokenId","type":"uint256","indexed":false,"internalType":"uint256"}],"anonymous":false},{"type":"event","name":"MetadataUpdate","inputs":[{"name":"_tokenId","type":"uint256","indexed":false,"internalType":"uint256"}],"anonymous":false},{"type":"event","name":"NFTCreated","inputs":[{"name":"tokenId","type":"uint256","indexed":true,"internalType":"uint256"},{"name":"owner","type":"address","indexed":true,"internalType":"address"},{"name":"tokenURI","type":"string","indexed":false,"internalType":"string"}],"anonymous":false},{"type":"event","name":"Transfer","inputs":[{"name":"from","type":"address","indexed":true,"internalType":"address"},{"name":"to","type":"address","indexed":true,"internalType":"address"},{"name":"tokenId","type":"uint256","indexed":true,"internalType":"uint256"}],"anonymous":false},{"type":"error","name":"ERC721IncorrectOwner","inputs":[{"name":"sender","type":"address","internalType":"address"},{"name":"tokenId","type":"uint256","internalType":"uint256"},{"name":"owner","type":"address","internalType":"address"}]},{"type":"error","name":"ERC721InsufficientApproval","inputs":[{"name":"operator","type":"address","internalType":"address"},{"name":"tokenId","type":"uint256","internalType":"uint256"}]},{"type":"error","name":"ERC721InvalidApprover","inputs":[{"name":"approver","type":"address","internalType":"address"}]},{"type":"error","name":"ERC721InvalidOperator","inputs":[{"name":"operator","type":"address","internalType":"address"}]},{"type":"error","name":"ERC721InvalidOwner","inputs":[{"name":"owner","type":"address","internalType":"address"}]},{"type":"error","name":"ERC721InvalidReceiver","inputs":[{"name":"receiver","type":"address","internalType":"address"}]},{"type":"error","name":"ERC721InvalidSender","inputs":[{"name":"sender","type":"address","internalType":"address"}]},{"type":"error","name":"ERC721NonexistentToken","inputs":[{"name":"tokenId","type":"uint256","internalType":"uint256"}]}],"bytecode":{"object":"0x608060405234801561001057600080fd5b50604051611bb9380380611bb983398101604081905261002f916101b1565b8181600061003d83826102a3565b50600161004a82826102a3565b505050604051610059906100eb565b604051809103906000f080158015610075573d6000803e3d6000fd5b50600780546001600160a01b0319166001600160a01b03929092169182179055604051633fb5c1cb60e01b815260006004820152633fb5c1cb90602401600060405180830381600087803b1580156100cc57600080fd5b505af11580156100e0573d6000803e3d6000fd5b505050505050610361565b61012480611a9583390190565b634e487b7160e01b600052604160045260246000fd5b600082601f83011261011f57600080fd5b81516001600160401b03811115610138576101386100f8565b604051601f8201601f19908116603f011681016001600160401b0381118282101715610166576101666100f8565b60405281815283820160200185101561017e57600080fd5b60005b8281101561019d57602081860181015183830182015201610181565b506000918101602001919091529392505050565b600080604083850312156101c457600080fd5b82516001600160401b038111156101da57600080fd5b6101e68582860161010e565b602085015190935090506001600160401b0381111561020457600080fd5b6102108582860161010e565b9150509250929050565b600181811c9082168061022e57607f821691505b60208210810361024e57634e487b7160e01b600052602260045260246000fd5b50919050565b601f82111561029e57806000526020600020601f840160051c8101602085101561027b5750805b601f840160051c820191505b8181101561029b5760008155600101610287565b50505b505050565b81516001600160401b038111156102bc576102bc6100f8565b6102d0816102ca845461021a565b84610254565b6020601f82116001811461030457600083156102ec5750848201515b600019600385901b1c1916600184901b17845561029b565b600084815260208120601f198516915b828110156103345787850151825560209485019460019092019101610314565b50848210156103525786840151600019600387901b60f8161c191681555b50505050600190811b01905550565b611725806103706000396000f3fe608060405234801561001057600080fd5b50600436106101005760003560e01c806395d89b4111610097578063c87b56dd11610066578063c87b56dd14610283578063c89dff5b14610296578063da2ed03e146102ab578063e985e9c5146102be57600080fd5b806395d89b41146101dc578063a22cb465146101e4578063a8eb501e146101f7578063b88d4fde1461027057600080fd5b806323b872dd116100d357806323b872dd1461018257806342842e0e146101955780636352211e146101a857806370a08231146101bb57600080fd5b806301ffc9a71461010557806306fdde031461012d578063081812fc14610142578063095ea7b31461016d575b600080fd5b61011861011336600461114c565b6102d1565b60405190151581526020015b60405180910390f35b6101356102fc565b60405161012491906111b9565b6101556101503660046111cc565b61038e565b6040516001600160a01b039091168152602001610124565b61018061017b366004611201565b6103b7565b005b61018061019036600461122b565b6103c6565b6101806101a336600461122b565b610456565b6101556101b63660046111cc565b610476565b6101ce6101c9366004611268565b610481565b604051908152602001610124565b6101356104c9565b6101806101f2366004611283565b6104d8565b61024c6102053660046111cc565b604080518082019091526000808252602082015250600090815260086020908152604091829020825180840190935280548352600101546001600160a01b03169082015290565b60408051825181526020928301516001600160a01b03169281019290925201610124565b61018061027e36600461134f565b6104e3565b6101356102913660046111cc565b6104fa565b61029e61060b565b60405161012491906113cb565b6101806102b936600461145a565b61079c565b6101186102cc3660046114a3565b61091b565b60006001600160e01b03198216632483248360e11b14806102f657506102f682610949565b92915050565b60606000805461030b906114d6565b80601f0160208091040260200160405190810160405280929190818152602001828054610337906114d6565b80156103845780601f1061035957610100808354040283529160200191610384565b820191906000526020600020905b81548152906001019060200180831161036757829003601f168201915b5050505050905090565b600061039982610999565b506000828152600460205260409020546001600160a01b03166102f6565b6103c28282336109d2565b5050565b6001600160a01b0382166103f557604051633250574960e11b8152600060048201526024015b60405180910390fd5b60006104028383336109df565b9050836001600160a01b0316816001600160a01b031614610450576040516364283d7b60e01b81526001600160a01b03808616600483015260248201849052821660448201526064016103ec565b50505050565b610471838383604051806020016040528060008152506104e3565b505050565b60006102f682610999565b60006001600160a01b0382166104ad576040516322718ad960e21b8152600060048201526024016103ec565b506001600160a01b031660009081526003602052604090205490565b60606001805461030b906114d6565b6103c2338383610ad8565b6104ee8484846103c6565b61045084848484610b77565b606061050582610999565b506000828152600660205260408120805461051f906114d6565b80601f016020809104026020016040519081016040528092919081815260200182805461054b906114d6565b80156105985780601f1061056d57610100808354040283529160200191610598565b820191906000526020600020905b81548152906001019060200180831161057b57829003601f168201915b5050505050905060006105b660408051602081019091526000815290565b905080516000036105c8575092915050565b8151156105fa5780826040516020016105e2929190611510565b60405160208183030381529060405292505050919050565b61060384610ca0565b949350505050565b60606000600760009054906101000a90046001600160a01b03166001600160a01b0316636c1438626040518163ffffffff1660e01b8152600401602060405180830381865afa158015610662573d6000803e3d6000fd5b505050506040513d601f19601f82011682018060405250810190610686919061153f565b905060008167ffffffffffffffff8111156106a3576106a36112bf565b6040519080825280602002602001820160405280156106f057816020015b604080516060808201835260008083526020830152918101919091528152602001906001900390816106c15790505b50905060005b8281101561079557600060088161070e846001611558565b8152602001908152602001600020905060006040518060600160405280836000015481526020018360010160009054906101000a90046001600160a01b03166001600160a01b0316815260200161076884600001546104fa565b81525090508084848151811061078057610780611579565b602090810291909101015250506001016106f6565b5092915050565b600760009054906101000a90046001600160a01b03166001600160a01b031663d09de08a6040518163ffffffff1660e01b8152600401600060405180830381600087803b1580156107ec57600080fd5b505af1158015610800573d6000803e3d6000fd5b505050506000600760009054906101000a90046001600160a01b03166001600160a01b0316636c1438626040518163ffffffff1660e01b8152600401602060405180830381865afa158015610859573d6000803e3d6000fd5b505050506040513d601f19601f8201168201806040525081019061087d919061153f565b90506108893382610d15565b6108938183610d2f565b60408051808201825282815233602080830182815260008681526008909252908490209251835551600190920180546001600160a01b0319166001600160a01b0390931692909217909155905182907f97e133605a9dc1efc14cb96df12d8f7f4904bc8c5832b0fb80df5d635e0e68d79061090f9086906111b9565b60405180910390a35050565b6001600160a01b03918216600090815260056020908152604080832093909416825291909152205460ff1690565b60006001600160e01b031982166380ac58cd60e01b148061097a57506001600160e01b03198216635b5e139f60e01b145b806102f657506301ffc9a760e01b6001600160e01b03198316146102f6565b6000818152600260205260408120546001600160a01b0316806102f657604051637e27328960e01b8152600481018490526024016103ec565b6104718383836001610d7f565b6000828152600260205260408120546001600160a01b0390811690831615610a0c57610a0c818486610e85565b6001600160a01b03811615610a4a57610a29600085600080610d7f565b6001600160a01b038116600090815260036020526040902080546000190190555b6001600160a01b03851615610a79576001600160a01b0385166000908152600360205260409020805460010190555b60008481526002602052604080822080546001600160a01b0319166001600160a01b0389811691821790925591518793918516917fddf252ad1be2c89b69c2b068fc378daa952ba7f163c4a11628f55a4df523b3ef91a4949350505050565b6001600160a01b038216610b0a57604051630b61174360e31b81526001600160a01b03831660048201526024016103ec565b6001600160a01b03838116600081815260056020908152604080832094871680845294825291829020805460ff191686151590811790915591519182527f17307eab39ab6107e8899845ad3d59bd9653f200f220920489ca2b5937696c31910160405180910390a3505050565b6001600160a01b0383163b1561045057604051630a85bd0160e11b81526001600160a01b0384169063150b7a0290610bb990339088908790879060040161158f565b6020604051808303816000875af1925050508015610bf4575060408051601f3d908101601f19168201909252610bf1918101906115cc565b60015b610c5d573d808015610c22576040519150601f19603f3d011682016040523d82523d6000602084013e610c27565b606091505b508051600003610c5557604051633250574960e11b81526001600160a01b03851660048201526024016103ec565b805181602001fd5b6001600160e01b03198116630a85bd0160e11b14610c9957604051633250574960e11b81526001600160a01b03851660048201526024016103ec565b5050505050565b6060610cab82610999565b506000610cc360408051602081019091526000815290565b90506000815111610ce35760405180602001604052806000815250610d0e565b80610ced84610ee9565b604051602001610cfe929190611510565b6040516020818303038152906040525b9392505050565b6103c2828260405180602001604052806000815250610f7c565b6000828152600660205260409020610d478282611630565b506040518281527ff8e1a15aba9398e019f0b49df1a4fde98ee17ae345cb5f6b5e2c27f5033e8ce79060200160405180910390a15050565b8080610d9357506001600160a01b03821615155b15610e55576000610da384610999565b90506001600160a01b03831615801590610dcf5750826001600160a01b0316816001600160a01b031614155b8015610de25750610de0818461091b565b155b15610e0b5760405163a9fbf51f60e01b81526001600160a01b03841660048201526024016103ec565b8115610e535783856001600160a01b0316826001600160a01b03167f8c5be1e5ebec7d5bd14f71427d1e84f3dd0314c0f7b2291e5b200ac8c7c3b92560405160405180910390a45b505b5050600090815260046020526040902080546001600160a01b0319166001600160a01b0392909216919091179055565b610e90838383610f93565b610471576001600160a01b038316610ebe57604051637e27328960e01b8152600481018290526024016103ec565b60405163177e802f60e01b81526001600160a01b0383166004820152602481018290526044016103ec565b60606000610ef683610ff6565b600101905060008167ffffffffffffffff811115610f1657610f166112bf565b6040519080825280601f01601f191660200182016040528015610f40576020820181803683370190505b5090508181016020015b600019016f181899199a1a9b1b9c1cb0b131b232b360811b600a86061a8153600a8504945084610f4a57509392505050565b610f8683836110ce565b6104716000848484610b77565b60006001600160a01b038316158015906106035750826001600160a01b0316846001600160a01b03161480610fcd5750610fcd848461091b565b806106035750506000908152600460205260409020546001600160a01b03908116911614919050565b60008072184f03e93ff9f4daa797ed6e38ed64bf6a1f0160401b83106110355772184f03e93ff9f4daa797ed6e38ed64bf6a1f0160401b830492506040015b6d04ee2d6d415b85acef81000000008310611061576d04ee2d6d415b85acef8100000000830492506020015b662386f26fc10000831061107f57662386f26fc10000830492506010015b6305f5e1008310611097576305f5e100830492506008015b61271083106110ab57612710830492506004015b606483106110bd576064830492506002015b600a83106102f65760010192915050565b6001600160a01b0382166110f857604051633250574960e11b8152600060048201526024016103ec565b6000611106838360006109df565b90506001600160a01b03811615610471576040516339e3563760e11b8152600060048201526024016103ec565b6001600160e01b03198116811461114957600080fd5b50565b60006020828403121561115e57600080fd5b8135610d0e81611133565b60005b8381101561118457818101518382015260200161116c565b50506000910152565b600081518084526111a5816020860160208601611169565b601f01601f19169290920160200192915050565b602081526000610d0e602083018461118d565b6000602082840312156111de57600080fd5b5035919050565b80356001600160a01b03811681146111fc57600080fd5b919050565b6000806040838503121561121457600080fd5b61121d836111e5565b946020939093013593505050565b60008060006060848603121561124057600080fd5b611249846111e5565b9250611257602085016111e5565b929592945050506040919091013590565b60006020828403121561127a57600080fd5b610d0e826111e5565b6000806040838503121561129657600080fd5b61129f836111e5565b9150602083013580151581146112b457600080fd5b809150509250929050565b634e487b7160e01b600052604160045260246000fd5b60008067ffffffffffffffff8411156112f0576112f06112bf565b50604051601f19601f85018116603f0116810181811067ffffffffffffffff8211171561131f5761131f6112bf565b60405283815290508082840185101561133757600080fd5b83836020830137600060208583010152509392505050565b6000806000806080858703121561136557600080fd5b61136e856111e5565b935061137c602086016111e5565b925060408501359150606085013567ffffffffffffffff81111561139f57600080fd5b8501601f810187136113b057600080fd5b6113bf878235602084016112d5565b91505092959194509250565b6000602082016020835280845180835260408501915060408160051b86010192506020860160005b8281101561144e57868503603f190184528151805186526020808201516001600160a01b0316908701526040908101516060918701829052906114389087018261118d565b95505060209384019391909101906001016113f3565b50929695505050505050565b60006020828403121561146c57600080fd5b813567ffffffffffffffff81111561148357600080fd5b8201601f8101841361149457600080fd5b610603848235602084016112d5565b600080604083850312156114b657600080fd5b6114bf836111e5565b91506114cd602084016111e5565b90509250929050565b600181811c908216806114ea57607f821691505b60208210810361150a57634e487b7160e01b600052602260045260246000fd5b50919050565b60008351611522818460208801611169565b835190830190611536818360208801611169565b01949350505050565b60006020828403121561155157600080fd5b5051919050565b808201808211156102f657634e487b7160e01b600052601160045260246000fd5b634e487b7160e01b600052603260045260246000fd5b6001600160a01b03858116825284166020820152604081018390526080606082018190526000906115c29083018461118d565b9695505050505050565b6000602082840312156115de57600080fd5b8151610d0e81611133565b601f82111561047157806000526020600020601f840160051c810160208510156116105750805b601f840160051c820191505b81811015610c99576000815560010161161c565b815167ffffffffffffffff81111561164a5761164a6112bf565b61165e8161165884546114d6565b846115e9565b6020601f821160018114611692576000831561167a5750848201515b600019600385901b1c1916600184901b178455610c99565b600084815260208120601f198516915b828110156116c257878501518255602094850194600190920191016116a2565b50848210156116e05786840151600019600387901b60f8161c191681555b50505050600190811b0190555056fea26469706673582212200039211e55df52f8e77859d838cd2e3228ce144e746fdfe717b3af2d293b724b64736f6c634300081a00336080604052348015600f57600080fd5b506101058061001f6000396000f3fe6080604052348015600f57600080fd5b506004361060465760003560e01c80633fb5c1cb14604b5780636c14386214605d5780638381f58a146073578063d09de08a14607b575b600080fd5b605b60563660046091565b600055565b005b6000545b60405190815260200160405180910390f35b606160005481565b605b600080549080608a8360a9565b9190505550565b60006020828403121560a257600080fd5b5035919050565b60006001820160c857634e487b7160e01b600052601160045260246000fd5b506001019056fea2646970667358221220fa35dd18345015055b437568ebbf881e0021d616671c20075ef3db2a24e79d8764736f6c634300081a0033","linkReferences":{}},"methodIdentifiers":{"approve(address,uint256)":"095ea7b3","balanceOf(address)":"70a08231","createNFT(string)":"da2ed03e","getApproved(uint256)":"081812fc","getNFTForTokenId(uint256)":"a8eb501e","getNFTsInCollection()":"c89dff5b","isApprovedForAll(address,address)":"e985e9c5","name()":"06fdde03","ownerOf(uint256)":"6352211e","safeTransferFrom(address,address,uint256)":"42842e0e","safeTransferFrom(address,address,uint256,bytes)":"b88d4fde","setApprovalForAll(address,bool)":"a22cb465","supportsInterface(bytes4)":"01ffc9a7","symbol()":"95d89b41","tokenURI(uint256)":"c87b56dd","transferFrom(address,address,uint256)":"23b872dd"},"id":39}