{"abi":[{"type":"constructor","inputs":[{"name":"_name","type":"string","internalType":"string"},{"name":"_symbol","type":"string","internalType":"string"},{"name":"paymentTokenAddress","type":"address","internalType":"address"}],"stateMutability":"nonpayable"},{"type":"function","name":"approve","inputs":[{"name":"to","type":"address","internalType":"address"},{"name":"tokenId","type":"uint256","internalType":"uint256"}],"outputs":[],"stateMutability":"nonpayable"},{"type":"function","name":"balanceOf","inputs":[{"name":"owner","type":"address","internalType":"address"}],"outputs":[{"name":"","type":"uint256","internalType":"uint256"}],"stateMutability":"view"},{"type":"function","name":"buyNFT","inputs":[{"name":"tokenId","type":"uint256","internalType":"uint256"}],"outputs":[],"stateMutability":"nonpayable"},{"type":"function","name":"createNFT","inputs":[{"name":"tokenURI","type":"string","internalType":"string"},{"name":"price","type":"uint256","internalType":"uint256"}],"outputs":[],"stateMutability":"nonpayable"},{"type":"function","name":"getApproved","inputs":[{"name":"tokenId","type":"uint256","internalType":"uint256"}],"outputs":[{"name":"","type":"address","internalType":"address"}],"stateMutability":"view"},{"type":"function","name":"getNFTForTokenId","inputs":[{"name":"tokenId","type":"uint256","internalType":"uint256"}],"outputs":[{"name":"","type":"tuple","internalType":"struct NFTCollection.MintedNFT","components":[{"name":"tokenId","type":"uint256","internalType":"uint256"},{"name":"owner","type":"address","internalType":"address"},{"name":"price","type":"uint256","internalType":"uint256"}]}],"stateMutability":"view"},{"type":"function","name":"getNFTPrice","inputs":[{"name":"tokenId","type":"uint256","internalType":"uint256"}],"outputs":[{"name":"","type":"uint256","internalType":"uint256"}],"stateMutability":"view"},{"type":"function","name":"getNFTsInCollection","inputs":[],"outputs":[{"name":"","type":"tuple[]","internalType":"struct NFTCollection.MintedNFTWithURI[]","components":[{"name":"tokenId","type":"uint256","internalType":"uint256"},{"name":"owner","type":"address","internalType":"address"},{"name":"uri","type":"string","internalType":"string"},{"name":"price","type":"uint256","internalType":"uint256"}]}],"stateMutability":"view"},{"type":"function","name":"getNFTsOwnedBy","inputs":[{"name":"owner","type":"address","internalType":"address"}],"outputs":[{"name":"","type":"tuple[]","internalType":"struct NFTCollection.MintedNFTWithURI[]","components":[{"name":"tokenId","type":"uint256","internalType":"uint256"},{"name":"owner","type":"address","internalType":"address"},{"name":"uri","type":"string","internalType":"string"},{"name":"price","type":"uint256","internalType":"uint256"}]}],"stateMutability":"view"},{"type":"function","name":"isApprovedForAll","inputs":[{"name":"owner","type":"address","internalType":"address"},{"name":"operator","type":"address","internalType":"address"}],"outputs":[{"name":"","type":"bool","internalType":"bool"}],"stateMutability":"view"},{"type":"function","name":"name","inputs":[],"outputs":[{"name":"","type":"string","internalType":"string"}],"stateMutability":"view"},{"type":"function","name":"ownerOf","inputs":[{"name":"tokenId","type":"uint256","internalType":"uint256"}],"outputs":[{"name":"","type":"address","internalType":"address"}],"stateMutability":"view"},{"type":"function","name":"safeTransferFrom","inputs":[{"name":"from","type":"address","internalType":"address"},{"name":"to","type":"address","internalType":"address"},{"name":"tokenId","type":"uint256","internalType":"uint256"}],"outputs":[],"stateMutability":"nonpayable"},{"type":"function","name":"safeTransferFrom","inputs":[{"name":"from","type":"address","internalType":"address"},{"name":"to","type":"address","internalType":"address"},{"name":"tokenId","type":"uint256","internalType":"uint256"},{"name":"data","type":"bytes","internalType":"bytes"}],"outputs":[],"stateMutability":"nonpayable"},{"type":"function","name":"setApprovalForAll","inputs":[{"name":"operator","type":"address","internalType":"address"},{"name":"approved","type":"bool","internalType":"bool"}],"outputs":[],"stateMutability":"nonpayable"},{"type":"function","name":"supportsInterface","inputs":[{"name":"interfaceId","type":"bytes4","internalType":"bytes4"}],"outputs":[{"name":"","type":"bool","internalType":"bool"}],"stateMutability":"view"},{"type":"function","name":"symbol","inputs":[],"outputs":[{"name":"","type":"string","internalType":"string"}],"stateMutability":"view"},{"type":"function","name":"tokenURI","inputs":[{"name":"tokenId","type":"uint256","internalType":"uint256"}],"outputs":[{"name":"","type":"string","internalType":"string"}],"stateMutability":"view"},{"type":"function","name":"transferFrom","inputs":[{"name":"from","type":"address","internalType":"address"},{"name":"to","type":"address","internalType":"address"},{"name":"tokenId","type":"uint256","internalType":"uint256"}],"outputs":[],"stateMutability":"nonpayable"},{"type":"event","name":"Approval","inputs":[{"name":"owner","type":"address","indexed":true,"internalType":"address"},{"name":"approved","type":"address","indexed":true,"internalType":"address"},{"name":"tokenId","type":"uint256","indexed":true,"internalType":"uint256"}],"anonymous":false},{"type":"event","name":"ApprovalForAll","inputs":[{"name":"owner","type":"address","indexed":true,"internalType":"address"},{"name":"operator","type":"address","indexed":true,"internalType":"address"},{"name":"approved","type":"bool","indexed":false,"internalType":"bool"}],"anonymous":false},{"type":"event","name":"BatchMetadataUpdate","inputs":[{"name":"_fromTokenId","type":"uint256","indexed":false,"internalType":"uint256"},{"name":"_toTokenId","type":"uint256","indexed":false,"internalType":"uint256"}],"anonymous":false},{"type":"event","name":"MetadataUpdate","inputs":[{"name":"_tokenId","type":"uint256","indexed":false,"internalType":"uint256"}],"anonymous":false},{"type":"event","name":"NFTBought","inputs":[{"name":"tokenId","type":"uint256","indexed":true,"internalType":"uint256"},{"name":"buyer","type":"address","indexed":true,"internalType":"address"},{"name":"price","type":"uint256","indexed":false,"internalType":"uint256"}],"anonymous":false},{"type":"event","name":"NFTCreated","inputs":[{"name":"tokenId","type":"uint256","indexed":true,"internalType":"uint256"},{"name":"owner","type":"address","indexed":true,"internalType":"address"},{"name":"tokenURI","type":"string","indexed":false,"internalType":"string"},{"name":"price","type":"uint256","indexed":false,"internalType":"uint256"}],"anonymous":false},{"type":"event","name":"Transfer","inputs":[{"name":"from","type":"address","indexed":true,"internalType":"address"},{"name":"to","type":"address","indexed":true,"internalType":"address"},{"name":"tokenId","type":"uint256","indexed":true,"internalType":"uint256"}],"anonymous":false},{"type":"error","name":"ERC721IncorrectOwner","inputs":[{"name":"sender","type":"address","internalType":"address"},{"name":"tokenId","type":"uint256","internalType":"uint256"},{"name":"owner","type":"address","internalType":"address"}]},{"type":"error","name":"ERC721InsufficientApproval","inputs":[{"name":"operator","type":"address","internalType":"address"},{"name":"tokenId","type":"uint256","internalType":"uint256"}]},{"type":"error","name":"ERC721InvalidApprover","inputs":[{"name":"approver","type":"address","internalType":"address"}]},{"type":"error","name":"ERC721InvalidOperator","inputs":[{"name":"operator","type":"address","internalType":"address"}]},{"type":"error","name":"ERC721InvalidOwner","inputs":[{"name":"owner","type":"address","internalType":"address"}]},{"type":"error","name":"ERC721InvalidReceiver","inputs":[{"name":"receiver","type":"address","internalType":"address"}]},{"type":"error","name":"ERC721InvalidSender","inputs":[{"name":"sender","type":"address","internalType":"address"}]},{"type":"error","name":"ERC721NonexistentToken","inputs":[{"name":"tokenId","type":"uint256","internalType":"uint256"}]}],"bytecode":{"object":"0x608060405234801561001057600080fd5b506040516122e73803806122e783398101604081905261002f916101d3565b8282600061003d83826102e7565b50600161004a82826102e7565b5050506040516100599061010d565b604051809103906000f080158015610075573d6000803e3d6000fd5b50600780546001600160a01b0319166001600160a01b03929092169182179055604051633fb5c1cb60e01b815260006004820152633fb5c1cb90602401600060405180830381600087803b1580156100cc57600080fd5b505af11580156100e0573d6000803e3d6000fd5b5050600880546001600160a01b0319166001600160a01b039490941693909317909255506103a592505050565b610124806121c383390190565b634e487b7160e01b600052604160045260246000fd5b600082601f83011261014157600080fd5b81516001600160401b0381111561015a5761015a61011a565b604051601f8201601f19908116603f011681016001600160401b03811182821017156101885761018861011a565b6040528181528382016020018510156101a057600080fd5b60005b828110156101bf576020818601810151838301820152016101a3565b506000918101602001919091529392505050565b6000806000606084860312156101e857600080fd5b83516001600160401b038111156101fe57600080fd5b61020a86828701610130565b602086015190945090506001600160401b0381111561022857600080fd5b61023486828701610130565b604086015190935090506001600160a01b038116811461025357600080fd5b809150509250925092565b600181811c9082168061027257607f821691505b60208210810361029257634e487b7160e01b600052602260045260246000fd5b50919050565b601f8211156102e257806000526020600020601f840160051c810160208510156102bf5750805b601f840160051c820191505b818110156102df57600081556001016102cb565b50505b505050565b81516001600160401b038111156103005761030061011a565b6103148161030e845461025e565b84610298565b6020601f82116001811461034857600083156103305750848201515b600019600385901b1c1916600184901b1784556102df565b600084815260208120601f198516915b828110156103785787850151825560209485019460019092019101610358565b50848210156103965786840151600019600387901b60f8161c191681555b50505050600190811b01905550565b611e0f806103b46000396000f3fe608060405234801561001057600080fd5b50600436106101215760003560e01c806370a08231116100ad578063b88d4fde11610071578063b88d4fde1461029f578063c87b56dd146102b2578063c89dff5b146102c5578063e985e9c5146102da578063f84e8c1b146102ed57600080fd5b806370a0823114610202578063929761791461022357806395d89b4114610246578063a22cb4651461024e578063a8eb501e1461026157600080fd5b806323b872dd116100f457806323b872dd146101a357806326829155146101b657806342842e0e146101c957806351ed8288146101dc5780636352211e146101ef57600080fd5b806301ffc9a71461012657806306fdde031461014e578063081812fc14610163578063095ea7b31461018e575b600080fd5b610139610134366004611789565b610300565b60405190151581526020015b60405180910390f35b61015661032b565b60405161014591906117f6565b610176610171366004611809565b6103bd565b6040516001600160a01b039091168152602001610145565b6101a161019c36600461183e565b6103e6565b005b6101a16101b1366004611868565b6103f5565b6101a16101c4366004611935565b610485565b6101a16101d7366004611868565b610616565b6101a16101ea366004611809565b610636565b6101766101fd366004611809565b6107fd565b61021561021036600461198e565b610808565b604051908152602001610145565b610215610231366004611809565b60009081526009602052604090206002015490565b610156610850565b6101a161025c3660046119b7565b61085f565b61027461026f366004611809565b61086a565b60408051825181526020808401516001600160a01b0316908201529181015190820152606001610145565b6101a16102ad3660046119ee565b6108d9565b6101566102c0366004611809565b6108f0565b6102cd610a01565b6040516101459190611a6a565b6101396102e8366004611b03565b610bb4565b6102cd6102fb36600461198e565b610be2565b60006001600160e01b03198216632483248360e11b1480610325575061032582610e2a565b92915050565b60606000805461033a90611b36565b80601f016020809104026020016040519081016040528092919081815260200182805461036690611b36565b80156103b35780601f10610388576101008083540402835291602001916103b3565b820191906000526020600020905b81548152906001019060200180831161039657829003601f168201915b5050505050905090565b60006103c882610e7a565b506000828152600460205260409020546001600160a01b0316610325565b6103f1828233610eb3565b5050565b6001600160a01b03821661042457604051633250574960e11b8152600060048201526024015b60405180910390fd5b6000610431838333610ec0565b9050836001600160a01b0316816001600160a01b03161461047f576040516364283d7b60e01b81526001600160a01b038086166004830152602482018490528216604482015260640161041b565b50505050565b600760009054906101000a90046001600160a01b03166001600160a01b031663d09de08a6040518163ffffffff1660e01b8152600401600060405180830381600087803b1580156104d557600080fd5b505af11580156104e9573d6000803e3d6000fd5b505050506000600760009054906101000a90046001600160a01b03166001600160a01b0316636c1438626040518163ffffffff1660e01b8152600401602060405180830381865afa158015610542573d6000803e3d6000fd5b505050506040513d601f19601f820116820180604052508101906105669190611b70565b90506105723382610fb9565b61057c8184610fd3565b60408051606081018252828152336020808301828152838501878152600087815260099093529185902093518455516001840180546001600160a01b0319166001600160a01b0390921691909117905551600290920191909155905182907f82dab408985c3d2faefd82b084de54234c7e481435f0cd9fcee456241d97e87d906106099087908790611b89565b60405180910390a3505050565b610631838383604051806020016040528060008152506108d9565b505050565b6000818152600960209081526040918290206002810154600190910154835180850190945260078452660283934b1b29d160cd1b92840192909252916001600160a01b03909116906106889083611023565b6106b160405180604001604052806007815260200166027bbb732b91d160cd1b81525082611068565b6106df6040518060400160405280600c81526020016b026b9b39739b2b73232b91d160a51b81525033611068565b6008546040516323b872dd60e01b81523360048201526001600160a01b03838116602483015260448201859052909116906323b872dd906064016020604051808303816000875af1158015610738573d6000803e3d6000fd5b505050506040513d601f19601f8201168201806040525081019061075c9190611bab565b6107995760405162461bcd60e51b815260206004820152600e60248201526d14185e5b595b9d0819985a5b195960921b604482015260640161041b565b6107a48133856110ad565b6000838152600960205260409081902060010180546001600160a01b03191633908117909155905184907f26701af1547d690b8c46ed5f0fbb8d5b115492b3b898f3dfc2e87b26cfcc1b14906106099086815260200190565b600061032582610e7a565b60006001600160a01b038216610834576040516322718ad960e21b81526000600482015260240161041b565b506001600160a01b031660009081526003602052604090205490565b60606001805461033a90611b36565b6103f133838361115d565b61089760405180606001604052806000815260200160006001600160a01b03168152602001600081525090565b5060009081526009602090815260409182902082516060810184528154815260018201546001600160a01b031692810192909252600201549181019190915290565b6108e48484846103f5565b61047f848484846111f4565b60606108fb82610e7a565b506000828152600660205260408120805461091590611b36565b80601f016020809104026020016040519081016040528092919081815260200182805461094190611b36565b801561098e5780601f106109635761010080835404028352916020019161098e565b820191906000526020600020905b81548152906001019060200180831161097157829003601f168201915b5050505050905060006109ac60408051602081019091526000815290565b905080516000036109be575092915050565b8151156109f05780826040516020016109d8929190611bc8565b60405160208183030381529060405292505050919050565b6109f98461131d565b949350505050565b60606000600760009054906101000a90046001600160a01b03166001600160a01b0316636c1438626040518163ffffffff1660e01b8152600401602060405180830381865afa158015610a58573d6000803e3d6000fd5b505050506040513d601f19601f82011682018060405250810190610a7c9190611b70565b905060008167ffffffffffffffff811115610a9957610a996118a5565b604051908082528060200260200182016040528015610afe57816020015b610aeb60405180608001604052806000815260200160006001600160a01b0316815260200160608152602001600081525090565b815260200190600190039081610ab75790505b50905060005b82811015610bad576000600981610b1c846001611c0d565b8152602001908152602001600020905060006040518060800160405280836000015481526020018360010160009054906101000a90046001600160a01b03166001600160a01b03168152602001610b7684600001546108f0565b81526020018360020154815250905080848481518110610b9857610b98611c20565b60209081029190910101525050600101610b04565b5092915050565b6001600160a01b03918216600090815260056020908152604080832093909416825291909152205460ff1690565b60606000600760009054906101000a90046001600160a01b03166001600160a01b0316636c1438626040518163ffffffff1660e01b8152600401602060405180830381865afa158015610c39573d6000803e3d6000fd5b505050506040513d601f19601f82011682018060405250810190610c5d9190611b70565b90506000805b82811015610cbc576001600160a01b03851660096000610c84846001611c0d565b81526020810191909152604001600020600101546001600160a01b031603610cb45781610cb081611c36565b9250505b600101610c63565b5060008167ffffffffffffffff811115610cd857610cd86118a5565b604051908082528060200260200182016040528015610d3d57816020015b610d2a60405180608001604052806000815260200160006001600160a01b0316815260200160608152602001600081525090565b815260200190600190039081610cf65790505b5090506000805b84811015610e1f576001600160a01b03871660096000610d65846001611c0d565b81526020810191909152604001600020600101546001600160a01b031603610e17576000600981610d97846001611c0d565b815260208082019290925260409081016000208151608081018352815480825260018301546001600160a01b0316948201949094529093509190820190610ddd906108f0565b81526020018260020154815250848481518110610dfc57610dfc611c20565b60200260200101819052508280610e1290611c36565b935050505b600101610d44565b509095945050505050565b60006001600160e01b031982166380ac58cd60e01b1480610e5b57506001600160e01b03198216635b5e139f60e01b145b8061032557506301ffc9a760e01b6001600160e01b0319831614610325565b6000818152600260205260408120546001600160a01b03168061032557604051637e27328960e01b81526004810184905260240161041b565b6106318383836001611392565b6000828152600260205260408120546001600160a01b0390811690831615610eed57610eed818486611498565b6001600160a01b03811615610f2b57610f0a600085600080611392565b6001600160a01b038116600090815260036020526040902080546000190190555b6001600160a01b03851615610f5a576001600160a01b0385166000908152600360205260409020805460010190555b60008481526002602052604080822080546001600160a01b0319166001600160a01b0389811691821790925591518793918516917fddf252ad1be2c89b69c2b068fc378daa952ba7f163c4a11628f55a4df523b3ef91a4949350505050565b6103f18282604051806020016040528060008152506114fc565b6000828152600660205260409020610feb8282611c96565b506040518281527ff8e1a15aba9398e019f0b49df1a4fde98ee17ae345cb5f6b5e2c27f5033e8ce79060200160405180910390a15050565b6103f18282604051602401611039929190611b89565b60408051601f198184030181529190526020810180516001600160e01b03166309710a9d60e41b179052611513565b6103f1828260405160240161107e929190611d55565b60408051601f198184030181529190526020810180516001600160e01b031663319af33360e01b179052611513565b6001600160a01b0382166110d757604051633250574960e11b81526000600482015260240161041b565b60006110e583836000610ec0565b90506001600160a01b03811661111157604051637e27328960e01b81526004810183905260240161041b565b836001600160a01b0316816001600160a01b03161461047f576040516364283d7b60e01b81526001600160a01b038086166004830152602482018490528216604482015260640161041b565b6001600160a01b03821661118f57604051630b61174360e31b81526001600160a01b038316600482015260240161041b565b6001600160a01b03838116600081815260056020908152604080832094871680845294825291829020805460ff191686151590811790915591519182527f17307eab39ab6107e8899845ad3d59bd9653f200f220920489ca2b5937696c319101610609565b6001600160a01b0383163b1561047f57604051630a85bd0160e11b81526001600160a01b0384169063150b7a0290611236903390889087908790600401611d7f565b6020604051808303816000875af1925050508015611271575060408051601f3d908101601f1916820190925261126e91810190611dbc565b60015b6112da573d80801561129f576040519150601f19603f3d011682016040523d82523d6000602084013e6112a4565b606091505b5080516000036112d257604051633250574960e11b81526001600160a01b038516600482015260240161041b565b805181602001fd5b6001600160e01b03198116630a85bd0160e11b1461131657604051633250574960e11b81526001600160a01b038516600482015260240161041b565b5050505050565b606061132882610e7a565b50600061134060408051602081019091526000815290565b90506000815111611360576040518060200160405280600081525061138b565b8061136a8461151f565b60405160200161137b929190611bc8565b6040516020818303038152906040525b9392505050565b80806113a657506001600160a01b03821615155b156114685760006113b684610e7a565b90506001600160a01b038316158015906113e25750826001600160a01b0316816001600160a01b031614155b80156113f557506113f38184610bb4565b155b1561141e5760405163a9fbf51f60e01b81526001600160a01b038416600482015260240161041b565b81156114665783856001600160a01b0316826001600160a01b03167f8c5be1e5ebec7d5bd14f71427d1e84f3dd0314c0f7b2291e5b200ac8c7c3b92560405160405180910390a45b505b5050600090815260046020526040902080546001600160a01b0319166001600160a01b0392909216919091179055565b6114a38383836115b2565b610631576001600160a01b0383166114d157604051637e27328960e01b81526004810182905260240161041b565b60405163177e802f60e01b81526001600160a01b03831660048201526024810182905260440161041b565b6115068383611615565b61063160008484846111f4565b61151c8161167a565b50565b6060600061152c8361169b565b600101905060008167ffffffffffffffff81111561154c5761154c6118a5565b6040519080825280601f01601f191660200182016040528015611576576020820181803683370190505b5090508181016020015b600019016f181899199a1a9b1b9c1cb0b131b232b360811b600a86061a8153600a850494508461158057509392505050565b60006001600160a01b038316158015906109f95750826001600160a01b0316846001600160a01b031614806115ec57506115ec8484610bb4565b806109f95750506000908152600460205260409020546001600160a01b03908116911614919050565b6001600160a01b03821661163f57604051633250574960e11b81526000600482015260240161041b565b600061164d83836000610ec0565b90506001600160a01b03811615610631576040516339e3563760e11b81526000600482015260240161041b565b80516a636f6e736f6c652e6c6f67602083016000808483855afa5050505050565b60008072184f03e93ff9f4daa797ed6e38ed64bf6a1f0160401b83106116da5772184f03e93ff9f4daa797ed6e38ed64bf6a1f0160401b830492506040015b6d04ee2d6d415b85acef81000000008310611706576d04ee2d6d415b85acef8100000000830492506020015b662386f26fc10000831061172457662386f26fc10000830492506010015b6305f5e100831061173c576305f5e100830492506008015b612710831061175057612710830492506004015b60648310611762576064830492506002015b600a83106103255760010192915050565b6001600160e01b03198116811461151c57600080fd5b60006020828403121561179b57600080fd5b813561138b81611773565b60005b838110156117c15781810151838201526020016117a9565b50506000910152565b600081518084526117e28160208601602086016117a6565b601f01601f19169290920160200192915050565b60208152600061138b60208301846117ca565b60006020828403121561181b57600080fd5b5035919050565b80356001600160a01b038116811461183957600080fd5b919050565b6000806040838503121561185157600080fd5b61185a83611822565b946020939093013593505050565b60008060006060848603121561187d57600080fd5b61188684611822565b925061189460208501611822565b929592945050506040919091013590565b634e487b7160e01b600052604160045260246000fd5b60008067ffffffffffffffff8411156118d6576118d66118a5565b50604051601f19601f85018116603f0116810181811067ffffffffffffffff82111715611905576119056118a5565b60405283815290508082840185101561191d57600080fd5b83836020830137600060208583010152509392505050565b6000806040838503121561194857600080fd5b823567ffffffffffffffff81111561195f57600080fd5b8301601f8101851361197057600080fd5b61197f858235602084016118bb565b95602094909401359450505050565b6000602082840312156119a057600080fd5b61138b82611822565b801515811461151c57600080fd5b600080604083850312156119ca57600080fd5b6119d383611822565b915060208301356119e3816119a9565b809150509250929050565b60008060008060808587031215611a0457600080fd5b611a0d85611822565b9350611a1b60208601611822565b925060408501359150606085013567ffffffffffffffff811115611a3e57600080fd5b8501601f81018713611a4f57600080fd5b611a5e878235602084016118bb565b91505092959194509250565b6000602082016020835280845180835260408501915060408160051b86010192506020860160005b82811015611af757603f1987860301845281518051865260018060a01b036020820151166020870152604081015160806040880152611ad460808801826117ca565b606092830151979092019690965294506020938401939190910190600101611a92565b50929695505050505050565b60008060408385031215611b1657600080fd5b611b1f83611822565b9150611b2d60208401611822565b90509250929050565b600181811c90821680611b4a57607f821691505b602082108103611b6a57634e487b7160e01b600052602260045260246000fd5b50919050565b600060208284031215611b8257600080fd5b5051919050565b604081526000611b9c60408301856117ca565b90508260208301529392505050565b600060208284031215611bbd57600080fd5b815161138b816119a9565b60008351611bda8184602088016117a6565b835190830190611bee8183602088016117a6565b01949350505050565b634e487b7160e01b600052601160045260246000fd5b8082018082111561032557610325611bf7565b634e487b7160e01b600052603260045260246000fd5b600060018201611c4857611c48611bf7565b5060010190565b601f82111561063157806000526020600020601f840160051c81016020851015611c765750805b601f840160051c820191505b818110156113165760008155600101611c82565b815167ffffffffffffffff811115611cb057611cb06118a5565b611cc481611cbe8454611b36565b84611c4f565b6020601f821160018114611cf85760008315611ce05750848201515b600019600385901b1c1916600184901b178455611316565b600084815260208120601f198516915b82811015611d285787850151825560209485019460019092019101611d08565b5084821015611d465786840151600019600387901b60f8161c191681555b50505050600190811b01905550565b604081526000611d6860408301856117ca565b905060018060a01b03831660208301529392505050565b6001600160a01b0385811682528416602082015260408101839052608060608201819052600090611db2908301846117ca565b9695505050505050565b600060208284031215611dce57600080fd5b815161138b8161177356fea26469706673582212206067a5460676a0deead4cae671a37985e876e6ff3044e62c616a9421e49e946564736f6c634300081a00336080604052348015600f57600080fd5b506101058061001f6000396000f3fe6080604052348015600f57600080fd5b506004361060465760003560e01c80633fb5c1cb14604b5780636c14386214605d5780638381f58a146073578063d09de08a14607b575b600080fd5b605b60563660046091565b600055565b005b6000545b60405190815260200160405180910390f35b606160005481565b605b600080549080608a8360a9565b9190505550565b60006020828403121560a257600080fd5b5035919050565b60006001820160c857634e487b7160e01b600052601160045260246000fd5b506001019056fea2646970667358221220fa35dd18345015055b437568ebbf881e0021d616671c20075ef3db2a24e79d8764736f6c634300081a0033","linkReferences":{}},"methodIdentifiers":{"approve(address,uint256)":"095ea7b3","balanceOf(address)":"70a08231","buyNFT(uint256)":"51ed8288","createNFT(string,uint256)":"26829155","getApproved(uint256)":"081812fc","getNFTForTokenId(uint256)":"a8eb501e","getNFTPrice(uint256)":"92976179","getNFTsInCollection()":"c89dff5b","getNFTsOwnedBy(address)":"f84e8c1b","isApprovedForAll(address,address)":"e985e9c5","name()":"06fdde03","ownerOf(uint256)":"6352211e","safeTransferFrom(address,address,uint256)":"42842e0e","safeTransferFrom(address,address,uint256,bytes)":"b88d4fde","setApprovalForAll(address,bool)":"a22cb465","supportsInterface(bytes4)":"01ffc9a7","symbol()":"95d89b41","tokenURI(uint256)":"c87b56dd","transferFrom(address,address,uint256)":"23b872dd"},"id":47}