{"abi":[{"type":"constructor","inputs":[{"name":"_name","type":"string","internalType":"string"},{"name":"_symbol","type":"string","internalType":"string"}],"stateMutability":"nonpayable"},{"type":"function","name":"approve","inputs":[{"name":"to","type":"address","internalType":"address"},{"name":"tokenId","type":"uint256","internalType":"uint256"}],"outputs":[],"stateMutability":"nonpayable"},{"type":"function","name":"balanceOf","inputs":[{"name":"owner","type":"address","internalType":"address"}],"outputs":[{"name":"","type":"uint256","internalType":"uint256"}],"stateMutability":"view"},{"type":"function","name":"createCollection","inputs":[{"name":"name","type":"string","internalType":"string"},{"name":"collectionAddress","type":"address","internalType":"address"}],"outputs":[],"stateMutability":"nonpayable"},{"type":"function","name":"getAllCollections","inputs":[],"outputs":[{"name":"","type":"tuple[]","internalType":"struct NFTMarketplace.Collection[]","components":[{"name":"id","type":"uint256","internalType":"uint256"},{"name":"name","type":"string","internalType":"string"},{"name":"owner","type":"address","internalType":"address"},{"name":"contractAddress","type":"address","internalType":"address"}]}],"stateMutability":"view"},{"type":"function","name":"getApproved","inputs":[{"name":"tokenId","type":"uint256","internalType":"uint256"}],"outputs":[{"name":"","type":"address","internalType":"address"}],"stateMutability":"view"},{"type":"function","name":"isApprovedForAll","inputs":[{"name":"owner","type":"address","internalType":"address"},{"name":"operator","type":"address","internalType":"address"}],"outputs":[{"name":"","type":"bool","internalType":"bool"}],"stateMutability":"view"},{"type":"function","name":"name","inputs":[],"outputs":[{"name":"","type":"string","internalType":"string"}],"stateMutability":"view"},{"type":"function","name":"ownerOf","inputs":[{"name":"tokenId","type":"uint256","internalType":"uint256"}],"outputs":[{"name":"","type":"address","internalType":"address"}],"stateMutability":"view"},{"type":"function","name":"safeTransferFrom","inputs":[{"name":"from","type":"address","internalType":"address"},{"name":"to","type":"address","internalType":"address"},{"name":"tokenId","type":"uint256","internalType":"uint256"}],"outputs":[],"stateMutability":"nonpayable"},{"type":"function","name":"safeTransferFrom","inputs":[{"name":"from","type":"address","internalType":"address"},{"name":"to","type":"address","internalType":"address"},{"name":"tokenId","type":"uint256","internalType":"uint256"},{"name":"data","type":"bytes","internalType":"bytes"}],"outputs":[],"stateMutability":"nonpayable"},{"type":"function","name":"setApprovalForAll","inputs":[{"name":"operator","type":"address","internalType":"address"},{"name":"approved","type":"bool","internalType":"bool"}],"outputs":[],"stateMutability":"nonpayable"},{"type":"function","name":"supportsInterface","inputs":[{"name":"interfaceId","type":"bytes4","internalType":"bytes4"}],"outputs":[{"name":"","type":"bool","internalType":"bool"}],"stateMutability":"view"},{"type":"function","name":"symbol","inputs":[],"outputs":[{"name":"","type":"string","internalType":"string"}],"stateMutability":"view"},{"type":"function","name":"tokenURI","inputs":[{"name":"tokenId","type":"uint256","internalType":"uint256"}],"outputs":[{"name":"","type":"string","internalType":"string"}],"stateMutability":"view"},{"type":"function","name":"transferFrom","inputs":[{"name":"from","type":"address","internalType":"address"},{"name":"to","type":"address","internalType":"address"},{"name":"tokenId","type":"uint256","internalType":"uint256"}],"outputs":[],"stateMutability":"nonpayable"},{"type":"event","name":"Approval","inputs":[{"name":"owner","type":"address","indexed":true,"internalType":"address"},{"name":"approved","type":"address","indexed":true,"internalType":"address"},{"name":"tokenId","type":"uint256","indexed":true,"internalType":"uint256"}],"anonymous":false},{"type":"event","name":"ApprovalForAll","inputs":[{"name":"owner","type":"address","indexed":true,"internalType":"address"},{"name":"operator","type":"address","indexed":true,"internalType":"address"},{"name":"approved","type":"bool","indexed":false,"internalType":"bool"}],"anonymous":false},{"type":"event","name":"BatchMetadataUpdate","inputs":[{"name":"_fromTokenId","type":"uint256","indexed":false,"internalType":"uint256"},{"name":"_toTokenId","type":"uint256","indexed":false,"internalType":"uint256"}],"anonymous":false},{"type":"event","name":"CollectionCreated","inputs":[{"name":"collectionId","type":"uint256","indexed":true,"internalType":"uint256"},{"name":"name","type":"string","indexed":false,"internalType":"string"},{"name":"owner","type":"address","indexed":true,"internalType":"address"},{"name":"contractAddress","type":"address","indexed":false,"internalType":"address"}],"anonymous":false},{"type":"event","name":"MetadataUpdate","inputs":[{"name":"_tokenId","type":"uint256","indexed":false,"internalType":"uint256"}],"anonymous":false},{"type":"event","name":"Transfer","inputs":[{"name":"from","type":"address","indexed":true,"internalType":"address"},{"name":"to","type":"address","indexed":true,"internalType":"address"},{"name":"tokenId","type":"uint256","indexed":true,"internalType":"uint256"}],"anonymous":false},{"type":"error","name":"ERC721IncorrectOwner","inputs":[{"name":"sender","type":"address","internalType":"address"},{"name":"tokenId","type":"uint256","internalType":"uint256"},{"name":"owner","type":"address","internalType":"address"}]},{"type":"error","name":"ERC721InsufficientApproval","inputs":[{"name":"operator","type":"address","internalType":"address"},{"name":"tokenId","type":"uint256","internalType":"uint256"}]},{"type":"error","name":"ERC721InvalidApprover","inputs":[{"name":"approver","type":"address","internalType":"address"}]},{"type":"error","name":"ERC721InvalidOperator","inputs":[{"name":"operator","type":"address","internalType":"address"}]},{"type":"error","name":"ERC721InvalidOwner","inputs":[{"name":"owner","type":"address","internalType":"address"}]},{"type":"error","name":"ERC721InvalidReceiver","inputs":[{"name":"receiver","type":"address","internalType":"address"}]},{"type":"error","name":"ERC721InvalidSender","inputs":[{"name":"sender","type":"address","internalType":"address"}]},{"type":"error","name":"ERC721NonexistentToken","inputs":[{"name":"tokenId","type":"uint256","internalType":"uint256"}]}],"bytecode":{"object":"0x608060405234801561001057600080fd5b50604051611b61380380611b6183398101604081905261002f916101b1565b8181600061003d83826102a3565b50600161004a82826102a3565b505050604051610059906100eb565b604051809103906000f080158015610075573d6000803e3d6000fd5b50600780546001600160a01b0319166001600160a01b03929092169182179055604051633fb5c1cb60e01b815260006004820152633fb5c1cb90602401600060405180830381600087803b1580156100cc57600080fd5b505af11580156100e0573d6000803e3d6000fd5b505050505050610361565b61012480611a3d83390190565b634e487b7160e01b600052604160045260246000fd5b600082601f83011261011f57600080fd5b81516001600160401b03811115610138576101386100f8565b604051601f8201601f19908116603f011681016001600160401b0381118282101715610166576101666100f8565b60405281815283820160200185101561017e57600080fd5b60005b8281101561019d57602081860181015183830182015201610181565b506000918101602001919091529392505050565b600080604083850312156101c457600080fd5b82516001600160401b038111156101da57600080fd5b6101e68582860161010e565b602085015190935090506001600160401b0381111561020457600080fd5b6102108582860161010e565b9150509250929050565b600181811c9082168061022e57607f821691505b60208210810361024e57634e487b7160e01b600052602260045260246000fd5b50919050565b601f82111561029e57806000526020600020601f840160051c8101602085101561027b5750805b601f840160051c820191505b8181101561029b5760008155600101610287565b50505b505050565b81516001600160401b038111156102bc576102bc6100f8565b6102d0816102ca845461021a565b84610254565b6020601f82116001811461030457600083156102ec5750848201515b600019600385901b1c1916600184901b17845561029b565b600084815260208120601f198516915b828110156103345787850151825560209485019460019092019101610314565b50848210156103525786840151600019600387901b60f8161c191681555b50505050600190811b01905550565b6116cd806103706000396000f3fe608060405234801561001057600080fd5b50600436106100f55760003560e01c80636352211e11610097578063a22cb46511610066578063a22cb46514610201578063b88d4fde14610214578063c87b56dd14610227578063e985e9c51461023a57600080fd5b80636352211e146101b05780636804a958146101c357806370a08231146101d857806395d89b41146101f957600080fd5b8063095ea7b3116100d3578063095ea7b3146101625780630f90ce521461017757806323b872dd1461018a57806342842e0e1461019d57600080fd5b806301ffc9a7146100fa57806306fdde0314610122578063081812fc14610137575b600080fd5b61010d6101083660046110aa565b61024d565b60405190151581526020015b60405180910390f35b61012a610278565b6040516101199190611117565b61014a61014536600461112a565b61030a565b6040516001600160a01b039091168152602001610119565b61017561017036600461115f565b610333565b005b610175610185366004611219565b610342565b61017561019836600461127b565b6104f4565b6101756101ab36600461127b565b610584565b61014a6101be36600461112a565b6105a4565b6101cb6105af565b60405161011991906112b8565b6101eb6101e6366004611357565b6107dd565b604051908152602001610119565b61012a610825565b61017561020f366004611372565b610834565b6101756102223660046113ae565b61083f565b61012a61023536600461112a565b610856565b61010d61024836600461142a565b610967565b60006001600160e01b03198216632483248360e11b1480610272575061027282610995565b92915050565b60606000805461028790611454565b80601f01602080910402602001604051908101604052809291908181526020018280546102b390611454565b80156103005780601f106102d557610100808354040283529160200191610300565b820191906000526020600020905b8154815290600101906020018083116102e357829003601f168201915b5050505050905090565b6000610315826109e5565b506000828152600460205260409020546001600160a01b0316610272565b61033e828233610a1e565b5050565b600760009054906101000a90046001600160a01b03166001600160a01b031663d09de08a6040518163ffffffff1660e01b8152600401600060405180830381600087803b15801561039257600080fd5b505af11580156103a6573d6000803e3d6000fd5b505050506000600760009054906101000a90046001600160a01b03166001600160a01b0316636c1438626040518163ffffffff1660e01b8152600401602060405180830381865afa1580156103ff573d6000803e3d6000fd5b505050506040513d601f19601f82011682018060405250810190610423919061148e565b60408051608081018252828152602080820187815233838501526001600160a01b03871660608401526000858152600890925292902081518155915192935091600182019061047290826114ee565b506040828101516002830180546001600160a01b03199081166001600160a01b03938416179091556060909401516003909301805490941692169190911790915551339082907fc911acf8b43f2846b6bbebdcd03c9170f742f974487b48ba05e5eac927ffbfd8906104e790879087906115ad565b60405180910390a3505050565b6001600160a01b03821661052357604051633250574960e11b8152600060048201526024015b60405180910390fd5b6000610530838333610a2b565b9050836001600160a01b0316816001600160a01b03161461057e576040516364283d7b60e01b81526001600160a01b038086166004830152602482018490528216604482015260640161051a565b50505050565b61059f8383836040518060200160405280600081525061083f565b505050565b6000610272826109e5565b60606000600760009054906101000a90046001600160a01b03166001600160a01b0316636c1438626040518163ffffffff1660e01b8152600401602060405180830381865afa158015610606573d6000803e3d6000fd5b505050506040513d601f19601f8201168201806040525081019061062a919061148e565b905060008167ffffffffffffffff81111561064757610647611189565b6040519080825280602002602001820160405280156106b557816020015b6106a26040518060800160405280600081526020016060815260200160006001600160a01b0316815260200160006001600160a01b031681525090565b8152602001906001900390816106655790505b50905060005b828110156107d65760006008816106d38460016115d7565b81526020019081526020016000209050806040518060800160405290816000820154815260200160018201805461070990611454565b80601f016020809104026020016040519081016040528092919081815260200182805461073590611454565b80156107825780601f1061075757610100808354040283529160200191610782565b820191906000526020600020905b81548152906001019060200180831161076557829003601f168201915b505050918352505060028201546001600160a01b03908116602083015260039092015490911660409091015283518490849081106107c2576107c26115f8565b6020908102919091010152506001016106bb565b5092915050565b60006001600160a01b038216610809576040516322718ad960e21b81526000600482015260240161051a565b506001600160a01b031660009081526003602052604090205490565b60606001805461028790611454565b61033e338383610b24565b61084a8484846104f4565b61057e84848484610bbb565b6060610861826109e5565b506000828152600660205260408120805461087b90611454565b80601f01602080910402602001604051908101604052809291908181526020018280546108a790611454565b80156108f45780601f106108c9576101008083540402835291602001916108f4565b820191906000526020600020905b8154815290600101906020018083116108d757829003601f168201915b50505050509050600061091260408051602081019091526000815290565b90508051600003610924575092915050565b81511561095657808260405160200161093e92919061160e565b60405160208183030381529060405292505050919050565b61095f84610ce4565b949350505050565b6001600160a01b03918216600090815260056020908152604080832093909416825291909152205460ff1690565b60006001600160e01b031982166380ac58cd60e01b14806109c657506001600160e01b03198216635b5e139f60e01b145b8061027257506301ffc9a760e01b6001600160e01b0319831614610272565b6000818152600260205260408120546001600160a01b03168061027257604051637e27328960e01b81526004810184905260240161051a565b61059f8383836001610d59565b6000828152600260205260408120546001600160a01b0390811690831615610a5857610a58818486610e5f565b6001600160a01b03811615610a9657610a75600085600080610d59565b6001600160a01b038116600090815260036020526040902080546000190190555b6001600160a01b03851615610ac5576001600160a01b0385166000908152600360205260409020805460010190555b60008481526002602052604080822080546001600160a01b0319166001600160a01b0389811691821790925591518793918516917fddf252ad1be2c89b69c2b068fc378daa952ba7f163c4a11628f55a4df523b3ef91a4949350505050565b6001600160a01b038216610b5657604051630b61174360e31b81526001600160a01b038316600482015260240161051a565b6001600160a01b03838116600081815260056020908152604080832094871680845294825291829020805460ff191686151590811790915591519182527f17307eab39ab6107e8899845ad3d59bd9653f200f220920489ca2b5937696c3191016104e7565b6001600160a01b0383163b1561057e57604051630a85bd0160e11b81526001600160a01b0384169063150b7a0290610bfd90339088908790879060040161163d565b6020604051808303816000875af1925050508015610c38575060408051601f3d908101601f19168201909252610c359181019061167a565b60015b610ca1573d808015610c66576040519150601f19603f3d011682016040523d82523d6000602084013e610c6b565b606091505b508051600003610c9957604051633250574960e11b81526001600160a01b038516600482015260240161051a565b805181602001fd5b6001600160e01b03198116630a85bd0160e11b14610cdd57604051633250574960e11b81526001600160a01b038516600482015260240161051a565b5050505050565b6060610cef826109e5565b506000610d0760408051602081019091526000815290565b90506000815111610d275760405180602001604052806000815250610d52565b80610d3184610ec3565b604051602001610d4292919061160e565b6040516020818303038152906040525b9392505050565b8080610d6d57506001600160a01b03821615155b15610e2f576000610d7d846109e5565b90506001600160a01b03831615801590610da95750826001600160a01b0316816001600160a01b031614155b8015610dbc5750610dba8184610967565b155b15610de55760405163a9fbf51f60e01b81526001600160a01b038416600482015260240161051a565b8115610e2d5783856001600160a01b0316826001600160a01b03167f8c5be1e5ebec7d5bd14f71427d1e84f3dd0314c0f7b2291e5b200ac8c7c3b92560405160405180910390a45b505b5050600090815260046020526040902080546001600160a01b0319166001600160a01b0392909216919091179055565b610e6a838383610f56565b61059f576001600160a01b038316610e9857604051637e27328960e01b81526004810182905260240161051a565b60405163177e802f60e01b81526001600160a01b03831660048201526024810182905260440161051a565b60606000610ed083610fb9565b600101905060008167ffffffffffffffff811115610ef057610ef0611189565b6040519080825280601f01601f191660200182016040528015610f1a576020820181803683370190505b5090508181016020015b600019016f181899199a1a9b1b9c1cb0b131b232b360811b600a86061a8153600a8504945084610f2457509392505050565b60006001600160a01b0383161580159061095f5750826001600160a01b0316846001600160a01b03161480610f905750610f908484610967565b8061095f5750506000908152600460205260409020546001600160a01b03908116911614919050565b60008072184f03e93ff9f4daa797ed6e38ed64bf6a1f0160401b8310610ff85772184f03e93ff9f4daa797ed6e38ed64bf6a1f0160401b830492506040015b6d04ee2d6d415b85acef81000000008310611024576d04ee2d6d415b85acef8100000000830492506020015b662386f26fc10000831061104257662386f26fc10000830492506010015b6305f5e100831061105a576305f5e100830492506008015b612710831061106e57612710830492506004015b60648310611080576064830492506002015b600a83106102725760010192915050565b6001600160e01b0319811681146110a757600080fd5b50565b6000602082840312156110bc57600080fd5b8135610d5281611091565b60005b838110156110e25781810151838201526020016110ca565b50506000910152565b600081518084526111038160208601602086016110c7565b601f01601f19169290920160200192915050565b602081526000610d5260208301846110eb565b60006020828403121561113c57600080fd5b5035919050565b80356001600160a01b038116811461115a57600080fd5b919050565b6000806040838503121561117257600080fd5b61117b83611143565b946020939093013593505050565b634e487b7160e01b600052604160045260246000fd5b60008067ffffffffffffffff8411156111ba576111ba611189565b50604051601f19601f85018116603f0116810181811067ffffffffffffffff821117156111e9576111e9611189565b60405283815290508082840185101561120157600080fd5b83836020830137600060208583010152509392505050565b6000806040838503121561122c57600080fd5b823567ffffffffffffffff81111561124357600080fd5b8301601f8101851361125457600080fd5b6112638582356020840161119f565b92505061127260208401611143565b90509250929050565b60008060006060848603121561129057600080fd5b61129984611143565b92506112a760208501611143565b929592945050506040919091013590565b6000602082016020835280845180835260408501915060408160051b86010192506020860160005b8281101561134b57603f1987860301845281518051865260208101516080602088015261131060808801826110eb565b6040838101516001600160a01b03908116918a01919091526060938401511692909701919091525060209384019391909101906001016112e0565b50929695505050505050565b60006020828403121561136957600080fd5b610d5282611143565b6000806040838503121561138557600080fd5b61138e83611143565b9150602083013580151581146113a357600080fd5b809150509250929050565b600080600080608085870312156113c457600080fd5b6113cd85611143565b93506113db60208601611143565b925060408501359150606085013567ffffffffffffffff8111156113fe57600080fd5b8501601f8101871361140f57600080fd5b61141e8782356020840161119f565b91505092959194509250565b6000806040838503121561143d57600080fd5b61144683611143565b915061127260208401611143565b600181811c9082168061146857607f821691505b60208210810361148857634e487b7160e01b600052602260045260246000fd5b50919050565b6000602082840312156114a057600080fd5b5051919050565b601f82111561059f57806000526020600020601f840160051c810160208510156114ce5750805b601f840160051c820191505b81811015610cdd57600081556001016114da565b815167ffffffffffffffff81111561150857611508611189565b61151c816115168454611454565b846114a7565b6020601f82116001811461155057600083156115385750848201515b600019600385901b1c1916600184901b178455610cdd565b600084815260208120601f198516915b828110156115805787850151825560209485019460019092019101611560565b508482101561159e5786840151600019600387901b60f8161c191681555b50505050600190811b01905550565b6040815260006115c060408301856110eb565b905060018060a01b03831660208301529392505050565b8082018082111561027257634e487b7160e01b600052601160045260246000fd5b634e487b7160e01b600052603260045260246000fd5b600083516116208184602088016110c7565b8351908301906116348183602088016110c7565b01949350505050565b6001600160a01b0385811682528416602082015260408101839052608060608201819052600090611670908301846110eb565b9695505050505050565b60006020828403121561168c57600080fd5b8151610d528161109156fea2646970667358221220126502259c3fc53a6e0b22529b306a8c5a8dcfd0c5d1226d2bb317eefbed0be864736f6c634300081a00336080604052348015600f57600080fd5b506101058061001f6000396000f3fe6080604052348015600f57600080fd5b506004361060465760003560e01c80633fb5c1cb14604b5780636c14386214605d5780638381f58a146073578063d09de08a14607b575b600080fd5b605b60563660046091565b600055565b005b6000545b60405190815260200160405180910390f35b606160005481565b605b600080549080608a8360a9565b9190505550565b60006020828403121560a257600080fd5b5035919050565b60006001820160c857634e487b7160e01b600052601160045260246000fd5b506001019056fea2646970667358221220fa35dd18345015055b437568ebbf881e0021d616671c20075ef3db2a24e79d8764736f6c634300081a0033","linkReferences":{}},"methodIdentifiers":{"approve(address,uint256)":"095ea7b3","balanceOf(address)":"70a08231","createCollection(string,address)":"0f90ce52","getAllCollections()":"6804a958","getApproved(uint256)":"081812fc","isApprovedForAll(address,address)":"e985e9c5","name()":"06fdde03","ownerOf(uint256)":"6352211e","safeTransferFrom(address,address,uint256)":"42842e0e","safeTransferFrom(address,address,uint256,bytes)":"b88d4fde","setApprovalForAll(address,bool)":"a22cb465","supportsInterface(bytes4)":"01ffc9a7","symbol()":"95d89b41","tokenURI(uint256)":"c87b56dd","transferFrom(address,address,uint256)":"23b872dd"},"id":16}