{"abi":[{"type":"constructor","inputs":[{"name":"initialSupply","type":"uint256","internalType":"uint256"}],"stateMutability":"nonpayable"},{"type":"function","name":"allowance","inputs":[{"name":"owner","type":"address","internalType":"address"},{"name":"spender","type":"address","internalType":"address"}],"outputs":[{"name":"","type":"uint256","internalType":"uint256"}],"stateMutability":"view"},{"type":"function","name":"approve","inputs":[{"name":"spender","type":"address","internalType":"address"},{"name":"value","type":"uint256","internalType":"uint256"}],"outputs":[{"name":"","type":"bool","internalType":"bool"}],"stateMutability":"nonpayable"},{"type":"function","name":"balanceOf","inputs":[{"name":"account","type":"address","internalType":"address"}],"outputs":[{"name":"","type":"uint256","internalType":"uint256"}],"stateMutability":"view"},{"type":"function","name":"decimals","inputs":[],"outputs":[{"name":"","type":"uint8","internalType":"uint8"}],"stateMutability":"view"},{"type":"function","name":"distributeTokens","inputs":[{"name":"recipient","type":"address","internalType":"address"},{"name":"amount","type":"uint256","internalType":"uint256"}],"outputs":[],"stateMutability":"nonpayable"},{"type":"function","name":"getBalance","inputs":[{"name":"account","type":"address","internalType":"address"}],"outputs":[{"name":"","type":"uint256","internalType":"uint256"}],"stateMutability":"view"},{"type":"function","name":"name","inputs":[],"outputs":[{"name":"","type":"string","internalType":"string"}],"stateMutability":"view"},{"type":"function","name":"symbol","inputs":[],"outputs":[{"name":"","type":"string","internalType":"string"}],"stateMutability":"view"},{"type":"function","name":"totalSupply","inputs":[],"outputs":[{"name":"","type":"uint256","internalType":"uint256"}],"stateMutability":"view"},{"type":"function","name":"transfer","inputs":[{"name":"to","type":"address","internalType":"address"},{"name":"value","type":"uint256","internalType":"uint256"}],"outputs":[{"name":"","type":"bool","internalType":"bool"}],"stateMutability":"nonpayable"},{"type":"function","name":"transferFrom","inputs":[{"name":"from","type":"address","internalType":"address"},{"name":"to","type":"address","internalType":"address"},{"name":"value","type":"uint256","internalType":"uint256"}],"outputs":[{"name":"","type":"bool","internalType":"bool"}],"stateMutability":"nonpayable"},{"type":"event","name":"Approval","inputs":[{"name":"owner","type":"address","indexed":true,"internalType":"address"},{"name":"spender","type":"address","indexed":true,"internalType":"address"},{"name":"value","type":"uint256","indexed":false,"internalType":"uint256"}],"anonymous":false},{"type":"event","name":"Transfer","inputs":[{"name":"from","type":"address","indexed":true,"internalType":"address"},{"name":"to","type":"address","indexed":true,"internalType":"address"},{"name":"value","type":"uint256","indexed":false,"internalType":"uint256"}],"anonymous":false},{"type":"error","name":"ERC20InsufficientAllowance","inputs":[{"name":"spender","type":"address","internalType":"address"},{"name":"allowance","type":"uint256","internalType":"uint256"},{"name":"needed","type":"uint256","internalType":"uint256"}]},{"type":"error","name":"ERC20InsufficientBalance","inputs":[{"name":"sender","type":"address","internalType":"address"},{"name":"balance","type":"uint256","internalType":"uint256"},{"name":"needed","type":"uint256","internalType":"uint256"}]},{"type":"error","name":"ERC20InvalidApprover","inputs":[{"name":"approver","type":"address","internalType":"address"}]},{"type":"error","name":"ERC20InvalidReceiver","inputs":[{"name":"receiver","type":"address","internalType":"address"}]},{"type":"error","name":"ERC20InvalidSender","inputs":[{"name":"sender","type":"address","internalType":"address"}]},{"type":"error","name":"ERC20InvalidSpender","inputs":[{"name":"spender","type":"address","internalType":"address"}]}],"bytecode":{"object":"0x608060405234801561001057600080fd5b50604051610b74380380610b7483398101604081905261002f91610207565b60405180604001604052806005815260200164506978696560d81b815250604051806040016040528060038152602001620a092b60eb1b815250816003908161007891906102bf565b50600461008582826102bf565b505050610098338261009e60201b60201c565b506103a4565b6001600160a01b0382166100cd5760405163ec442f0560e01b8152600060048201526024015b60405180910390fd5b6100d9600083836100dd565b5050565b6001600160a01b0383166101085780600260008282546100fd919061037d565b9091555061017a9050565b6001600160a01b0383166000908152602081905260409020548181101561015b5760405163391434e360e21b81526001600160a01b038516600482015260248101829052604481018390526064016100c4565b6001600160a01b03841660009081526020819052604090209082900390555b6001600160a01b038216610196576002805482900390556101b5565b6001600160a01b03821660009081526020819052604090208054820190555b816001600160a01b0316836001600160a01b03167fddf252ad1be2c89b69c2b068fc378daa952ba7f163c4a11628f55a4df523b3ef836040516101fa91815260200190565b60405180910390a3505050565b60006020828403121561021957600080fd5b5051919050565b634e487b7160e01b600052604160045260246000fd5b600181811c9082168061024a57607f821691505b60208210810361026a57634e487b7160e01b600052602260045260246000fd5b50919050565b601f8211156102ba57806000526020600020601f840160051c810160208510156102975750805b601f840160051c820191505b818110156102b757600081556001016102a3565b50505b505050565b81516001600160401b038111156102d8576102d8610220565b6102ec816102e68454610236565b84610270565b6020601f82116001811461032057600083156103085750848201515b600019600385901b1c1916600184901b1784556102b7565b600084815260208120601f198516915b828110156103505787850151825560209485019460019092019101610330565b508482101561036e5786840151600019600387901b60f8161c191681555b50505050600190811b01905550565b8082018082111561039e57634e487b7160e01b600052601160045260246000fd5b92915050565b6107c1806103b36000396000f3fe608060405234801561001057600080fd5b50600436106100a95760003560e01c8063313ce56711610071578063313ce5671461012957806370a082311461013857806395d89b4114610161578063a9059cbb14610169578063dd62ed3e1461017c578063f8b2cb4f146101b557600080fd5b806306fdde03146100ae578063095ea7b3146100cc578063158a4988146100ef57806318160ddd1461010457806323b872dd14610116575b600080fd5b6100b66101c8565b6040516100c3919061060a565b60405180910390f35b6100df6100da366004610674565b61025a565b60405190151581526020016100c3565b6101026100fd366004610674565b610274565b005b6002545b6040519081526020016100c3565b6100df61012436600461069e565b610282565b604051600081526020016100c3565b6101086101463660046106db565b6001600160a01b031660009081526020819052604090205490565b6100b66102a6565b6100df610177366004610674565b6102b5565b61010861018a3660046106fd565b6001600160a01b03918216600090815260016020908152604080832093909416825291909152205490565b6101086101c33660046106db565b6102c3565b6060600380546101d790610730565b80601f016020809104026020016040519081016040528092919081815260200182805461020390610730565b80156102505780601f1061022557610100808354040283529160200191610250565b820191906000526020600020905b81548152906001019060200180831161023357829003601f168201915b5050505050905090565b6000336102688185856102e1565b60019150505b92915050565b61027e82826102f3565b5050565b60003361029085828561032e565b61029b8585856103ac565b506001949350505050565b6060600480546101d790610730565b6000336102688185856103ac565b6001600160a01b03811660009081526020819052604081205461026e565b6102ee838383600161040b565b505050565b6001600160a01b0382166103225760405163ec442f0560e01b8152600060048201526024015b60405180910390fd5b61027e600083836104e0565b6001600160a01b0383811660009081526001602090815260408083209386168352929052205460001981146103a6578181101561039757604051637dc7a0d960e11b81526001600160a01b03841660048201526024810182905260448101839052606401610319565b6103a68484848403600061040b565b50505050565b6001600160a01b0383166103d657604051634b637e8f60e11b815260006004820152602401610319565b6001600160a01b0382166104005760405163ec442f0560e01b815260006004820152602401610319565b6102ee8383836104e0565b6001600160a01b0384166104355760405163e602df0560e01b815260006004820152602401610319565b6001600160a01b03831661045f57604051634a1406b160e11b815260006004820152602401610319565b6001600160a01b03808516600090815260016020908152604080832093871683529290522082905580156103a657826001600160a01b0316846001600160a01b03167f8c5be1e5ebec7d5bd14f71427d1e84f3dd0314c0f7b2291e5b200ac8c7c3b925846040516104d291815260200190565b60405180910390a350505050565b6001600160a01b03831661050b578060026000828254610500919061076a565b9091555061057d9050565b6001600160a01b0383166000908152602081905260409020548181101561055e5760405163391434e360e21b81526001600160a01b03851660048201526024810182905260448101839052606401610319565b6001600160a01b03841660009081526020819052604090209082900390555b6001600160a01b038216610599576002805482900390556105b8565b6001600160a01b03821660009081526020819052604090208054820190555b816001600160a01b0316836001600160a01b03167fddf252ad1be2c89b69c2b068fc378daa952ba7f163c4a11628f55a4df523b3ef836040516105fd91815260200190565b60405180910390a3505050565b602081526000825180602084015260005b81811015610638576020818601810151604086840101520161061b565b506000604082850101526040601f19601f83011684010191505092915050565b80356001600160a01b038116811461066f57600080fd5b919050565b6000806040838503121561068757600080fd5b61069083610658565b946020939093013593505050565b6000806000606084860312156106b357600080fd5b6106bc84610658565b92506106ca60208501610658565b929592945050506040919091013590565b6000602082840312156106ed57600080fd5b6106f682610658565b9392505050565b6000806040838503121561071057600080fd5b61071983610658565b915061072760208401610658565b90509250929050565b600181811c9082168061074457607f821691505b60208210810361076457634e487b7160e01b600052602260045260246000fd5b50919050565b8082018082111561026e57634e487b7160e01b600052601160045260246000fdfea2646970667358221220c34085a75fa4d97faca67f266a764403755344738de8889c5bd0aa6bd2f685a564736f6c634300081a0033","linkReferences":{}},"methodIdentifiers":{"allowance(address,address)":"dd62ed3e","approve(address,uint256)":"095ea7b3","balanceOf(address)":"70a08231","decimals()":"313ce567","distributeTokens(address,uint256)":"158a4988","getBalance(address)":"f8b2cb4f","name()":"06fdde03","symbol()":"95d89b41","totalSupply()":"18160ddd","transfer(address,uint256)":"a9059cbb","transferFrom(address,address,uint256)":"23b872dd"},"id":5}